S0120000446174616C6F676765722E7372656318
S113500000180020D55000004351000079580000DA
S1135010000000000000000000000000000000008C
S113502000000000000000000000000047510000E4
S1135030000000000000000049510000515400002D
S11350404F510000575100005F51000067510000AC
S11350506F510000775100007F5100006964000027
S11350608F510000975100009F510000A75100008C
S1135070E96800000569000021690000DD5D0000A9
S1135080CF510000D7510000DF510000E75100006C
S1135090EF510000F75100000161000007520000C9
S11350A00F5200001752000029640000275200002C
S11350B02F520000375200003F52000047520000B8
S11350C05C8E000000F9FF1F0800000008F9FF1FB4
S11350D05C02000072B601F031FC0E4B07E0186868
S11350E059681C000C349A6800F01AF823000A4A24
S11350F09342F4D306E018681C000834596800F0A1
S113510018F82300054A9342F5D362B603F003FD71
S1135110FEE7C046C0500000CC500000D450000050
S113512010B5002302E010C810C104339342FAD32F
S113513010BD002302E0002204C004338B42FAD3E2
S11351407047FEE7FEE7FEE7FEE7FEE7FEE710B581
S1135150FFF7FCFF10BD10B5FFF7F8FF10BD10B549
S1135160FFF7F4FF10BD10B5FFF7F0FF10BD10B549
S1135170FFF7ECFF10BD10B5FFF7E8FF10BD10B549
S1135180FFF7E4FF10BD10B5FFF7E0FF10BD10B549
S113519000F070FD10BD10B5FFF7D8FF10BD10B5BD
S11351A0FFF7D4FF10BD10B5FFF7D0FF10BD10B549
S11351B000F06CFD10BD10B500F07AFD10BD10B507
S11351C000F088FD10BD10B5FFF7C0FF10BD10B58D
S11351D0FFF7BCFF10BD10B5FFF7B8FF10BD10B549
S11351E0FFF7B4FF10BD10B5FFF7B0FF10BD10B549
S11351F0FFF7ACFF10BD10B5FFF7A8FF10BD10B549
S1135200FFF7A4FF10BD10B5FFF7A0FF10BD10B548
S1135210FFF79CFF10BD10B5FFF798FF10BD10B548
S1135220FFF794FF10BD10B5FFF790FF10BD10B548
S1135230FFF78CFF10BD10B5FFF788FF10BD10B548
S1135240FFF784FF10BD10B5FFF780FF10BDFFFF0F
S113525090B583B000AF02003960FB1D1A70FB1DCE
S11352601B787F2B28D82F4AFB1D1B785BB29B0829
S1135270C0339B009B58FA1D1278110003220A4088
S1135280D200FF2191400A00D2431A4011003B682A
S11352909B01FF221A40FB1D1B78180003230340C7
S11352A0DB009A401F48FB1D1B785BB29B080A4336
S11352B0C0339B001A5031E01B4AFB1D1B781900B8
S11352C00F230B40083B9B0806339B00D318043381
S11352D01B68FA1D1278110003220A40D200FF2134
S11352E091400A00D2431A4011003B689B01FF22FF
S11352F01A40FB1D1B78180003230340DB009A406F
S11353000948FB1D1B781C000F232340083B9B0806
S11353100A4306339B00C31804331A60C046BD46D3
S113532003B090BD00E100E000ED00E080B582B084
S113533000AF78607B685A1E80235B049A4201D3D5
S1135340012310E00A4B7A68013A5A6001235B4258
S113535003211800FFF77CFF054B00229A60044BE1
S113536007221A6000231800BD4602B080BDC04663
S113537010E000E080B500AF024B1B78DBB21800F0
S1135380BD4680BD04F9FF1F80B582B000AF0200A6
S1135390FB1D1A7000F0B2F900F078F800F092F9F1
S11353A000F0DAF80B4B1B68FA229100180003F0A6
S11353B0F0FB03001800FFF7B9FF031E01D0C0463D
S11353C0FDE7054BFA1D12781A70C046BD4602B0BF
S11353D080BDC04600F9FF1F04F9FF1F80B500AF70
S11353E00E4B1B78DBB2032B11D013DC022B0BD03A
S11353F010DC002B02D0012B03D00BE000F0ACF842
S113540009E000F0DDF806E000F01CF903E003F029
S113541031FA00E0C046C046BD4680BD04F9FF1F16
S113542080B582B000AF78600A00FB1C1A707B68FC
S1135430064A934205D1FB1C1B78022B01D100F0D4
S113544071F8C046BD4602B080BDC04600C00440ED
S113545080B500AF074B1B685A1C064B1A60054BFE
S11354601B68013302D1034B00221A60C046BD46BB
S113547080BDC04608F9FF1F80B500AF024B1B6812
S11354801800BD4680BDC04608F9FF1F90B589B01D
S113549000AF18203B1801221A703B1800225A70E2
S11354A03B1800229A703B1800225A6010217B1886
S11354B03A181A607B1801221A717B1801225A715A
S11354C00C003B1914481A00042103F047FA3B1955
S11354D011481A00052103F041FA3B190F481A003C
S11354E0012103F03BFA08243B190D4A03CA03C304
S11354F03B003A191A603B0000221A713B0001225A
S11355005A713B0005481A00022103F027FAC046ED
S1135510BD4609B090BDC04600A0044000C0044090
S1135520C08D000080B500AF094B1B78DBB201339E
S1135530084A134004D5013B042252421343013369
S1135540DAB2034B1A7000F0BDF8C046BD4680BD08
S113555004F9FF1F0300008080B582B000AFFFF79D
S11355608BFF03007B60134B1B687A68D31A632B91
S11355701BD9104B7A681A600F4B1B785A4253415F
S11355900A4B00220121180003F02EFA05E0074B04
S11355A001220121180003F027FAC046BD4602B0CB
S11355B080BDC0460CF9FF1F5CFBFF1FC0F00F400D
S11355C080B582B000AFFFF757FF03007B601A4B32
S11355D01B687A68D21AFA239B009A4227D3164B87
S11355E07A681A60154B1B785A425341DBB21A0091
S11355F0124B1A70114B1B78002B0CD0104B00224D
S11356000421180003F0F8F90D4B002205211800BD
S113561003F0F2F90BE00A4B01220421180003F015
S1135620EBF9074B01220521180003F0E5F9C04608
S90350D5D7
