S0120000446174616C6F676765722E7372656318
S113500000180020D5500000435100006D580000E6
S1135010000000000000000000000000000000008C
S113502000000000000000000000000047510000E4
S11350300000000000000000495100004554000039
S11350404F510000575100005F51000067510000AC
S11350506F510000775100007F5100005D64000033
S11350608F510000975100009F510000A75100008C
S1135070DD680000F968000015690000D15D0000DA
S1135080CF510000D7510000DF510000E75100006C
S1135090EF510000F7510000F560000007520000D6
S11350A00F520000175200001D6400002752000038
S11350B02F520000375200003F52000047520000B8
S11350C0508E000000F9FF1F0800000008F9FF1FC0
S11350D05C02000072B601F02BFC0E4B07E018686E
S11350E059681C000C349A6800F01AF823000A4A24
S11350F09342F4D306E018681C000834596800F0A1
S113510018F82300054A9342F5D362B603F0FDFC78
S1135110FEE7C046C0500000CC500000D450000050
S113512010B5002302E010C810C104339342FAD32F
S113513010BD002302E0002204C004338B42FAD3E2
S11351407047FEE7FEE7FEE7FEE7FEE7FEE710B581
S1135150FFF7FCFF10BD10B5FFF7F8FF10BD10B549
S1135160FFF7F4FF10BD10B5FFF7F0FF10BD10B549
S1135170FFF7ECFF10BD10B5FFF7E8FF10BD10B549
S1135180FFF7E4FF10BD10B5FFF7E0FF10BD10B549
S113519000F06AFD10BD10B5FFF7D8FF10BD10B5C3
S11351A0FFF7D4FF10BD10B5FFF7D0FF10BD10B549
S11351B000F066FD10BD10B500F074FD10BD10B513
S11351C000F082FD10BD10B5FFF7C0FF10BD10B593
S11351D0FFF7BCFF10BD10B5FFF7B8FF10BD10B549
S11351E0FFF7B4FF10BD10B5FFF7B0FF10BD10B549
S11351F0FFF7ACFF10BD10B5FFF7A8FF10BD10B549
S1135200FFF7A4FF10BD10B5FFF7A0FF10BD10B548
S1135210FFF79CFF10BD10B5FFF798FF10BD10B548
S1135220FFF794FF10BD10B5FFF790FF10BD10B548
S1135230FFF78CFF10BD10B5FFF788FF10BD10B548
S1135240FFF784FF10BD10B5FFF780FF10BDFFFF0F
S113525090B583B000AF02003960FB1D1A70FB1DCE
S11352601B787F2B28D82F4AFB1D1B785BB29B0829
S1135270C0339B009B58FA1D1278110003220A4088
S1135280D200FF2191400A00D2431A4011003B682A
S11352909B01FF221A40FB1D1B78180003230340C7
S11352A0DB009A401F48FB1D1B785BB29B080A4336
S11352B0C0339B001A5031E01B4AFB1D1B781900B8
S11352C00F230B40083B9B0806339B00D318043381
S11352D01B68FA1D1278110003220A40D200FF2134
S11352E091400A00D2431A4011003B689B01FF22FF
S11352F01A40FB1D1B78180003230340DB009A406F
S11353000948FB1D1B781C000F232340083B9B0806
S11353100A4306339B00C31804331A60C046BD46D3
S113532003B090BD00E100E000ED00E080B582B084
S113533000AF78607B685A1E80235B049A4201D3D5
S1135340012310E00A4B7A68013A5A6001235B4258
S113535003211800FFF77CFF054B00229A60044BE1
S113536007221A6000231800BD4602B080BDC04663
S113537010E000E080B500AF024B1B78DBB21800F0
S1135380BD4680BD04F9FF1F80B582B000AF0200A6
S1135390FB1D1A7000F0ACF900F072F800F08CF903
S11353A000F0D4F80B4B1B68FA229100180003F0AC
S11353B0EAFB03001800FFF7B9FF031E01D0C04643
S11353C0FDE7054BFA1D12781A70C046BD4602B0BF
S11353D080BDC04600F9FF1F04F9FF1F80B500AF70
S11353E00B4B1B78DBB2032B0BD00DDC012B02D053
S11353F0022B03D008E000F0DDF806E000F01CF911
S113540003E003F031FA00E0C046C046BD4680BD6B
S113541004F9FF1F80B582B000AF78600A00FB1C5E
S11354201A707B68064A934205D1FB1C1B78022B39
S113543001D100F071F8C046BD4602B080BDC0463F
S113544000C0044080B500AF074B1B685A1C064BD4
S11354501A60054B1B68013302D1034B00221A600A
S1135460C046BD4680BDC04608F9FF1F80B500AFE9
S1135470024B1B681800BD4680BDC04608F9FF1FDB
S113548090B589B000AF18203B1801221A703B1860
S113549000225A703B1800229A703B1800225A606E
S11354A010217B183A181A607B1801221A717B1894
S11354B001225A710C003B1914481A00042103F00C
S11354C047FA3B1911481A00052103F041FA3B1928
S11354D00F481A00012103F03BFA08243B190D4A36
S11354E003CA03C33B003A191A603B0000221A7135
S11354F03B0001225A713B0005481A00022103F0C7
S113550027FAC046BD4609B090BDC04600A004407D
S113551000C00440B48D000080B500AF094B1B7877
S1135520DBB20133084A134004D5013B0422524242
S113553013430133DAB2034B1A7000F0BDF8C046CE
S1135540BD4680BD04F9FF1F0300008080B582B012
S113555000AFFFF78BFF03007B60134B1B687A6877
S1135560D31A632B1BD9104B7A681A600F4B1B7824
S11355705A425341DBB21A000C4B1A700B4B1B7886
S1135580002B06D00A4B00220121180003F02EFA4A
S113559005E0074B01220121180003F027FAC04659
S11355A0BD4602B080BDC0460CF9FF1F5CFBFF1F67
S11355B0C0F00F4080B582B000AFFFF757FF030083
S11355C07B601A4B1B687A68D21AFA239B009A42B2
S11355D027D3164B7A681A60154B1B785A425341ED
S11355E0DBB21A00124B1A70114B1B78002B0CD033
S11355F0104B00220421180003F0F8F90D4B00228F
S11356000521180003F0F2F90BE00A4B01220421F2
S1135610180003F0EBF9074B01220521180003F0F1
S1135620E5F9C046BD4602B080BDC04610F9FF1F73
S11356305DFBFF1F40F00F4080B582B000AFFFF765
S113564015FF03007B60194B1B687A68D31AC72BBC
S113565027D9164B7A681A60154B1B785A42534166
S1135660DBB21A00124B1A70114B1B78002B0CD0B2
S1135670104B00220421180003F0B8F90D4B01224D
S11356800521180003F0B2F90BE00A4B01220421B2
S1135690180003F0ABF9074B00220521180003F0B2
S11356A0A5F9C046BD4602B080BDC04614F9FF1F2F
S11356B05EFBFF1F40F00F4080B500AF0A4B012294
S11356C00421180003F092F9074B01220521180068
S11356D003F08CF9054B01220121180003F086F92F
S11356E0C046BD4680BDC04640F00F40C0F00F40EC
S11356F080B500AF0C4A94235B00D3580A4980223A
S1135700D2051A4394235B00CA50074A98235B00CE
S1135710D35805498022D2051A4398235B00CA5006
S1135720C046BD4680BDC0460050064080B500AFAF
S1135730BFF34F8FC046044B044ADA60BFF34F8F68
S1135740C046C046FDE7C04600ED00E00400FA058F
S113575080B582B002AF0B4B18680B4B1B785BB261
S11357601900094B5B785BB2084A00930B003221A5
S113577002F062F8034B1B68180000F0A5F9C0465C
S1135780BD4680BD20F9FF1F1CF9FF1FBC8D000022
S113579080B500AF322001F0F9F80200274B1A60FF
S11357A096235B01264A1900100000F02BF9254BC3
S11357B0180000F089F900F075F80120FFF7E4FD06
S11357C0214B180000F0DCF9204B180000F0F0F930
S11357D0FFF704FE03F04FF8031C181C03F00AF84B
S11357E003005AB21A4B1A70FFF7C4FD03005AB2F1
S11357F0174B5A70042000F041F9031EE8D000F062
S113580083F90200134B1A60124B1B68124A1100F1
S1135810180002F075F8031E08D1104B180000F0B0
S113582053F90F4B0F4A1A60FFF780FF00F040F95D
S11358300D4B180000F048F9CAE7C04620F9FF1FD5
S113584000C00640C48D000010270000515700001E
S11358501CF9FF1F18F9FF1FD88D0000E08D000010
S113586000F8FF1FAAAAAAAAF08D0000042071461E
S1135870084202D0EFF3098001E0EFF30880816968
S11358800A88074B9A4200D0FEE702318161016821
S1135890012901D0002100E0202101607047C046A9
S11358A0ABBE000080B500AF1A21002000F038FA2A
S11358B0034B180000F056FAC046BD4680BDC046F2
S11358C05159000080B584B000AF7860786803F067
S11358D011FA031C1849181C02F0C4FD031C8B2187
S11358E0C905181C02F024FE031CFB601349F86868
S11358F002F096FE031C181C02F096FF104A114B8E
S113590002F0DCFA02000B0000200F4902F090FBC9
S113591002000B001000190000220C4B02F0CEFA1A
S113592002000B001000190002F004FD031C181CF7
S1135930BD4604B080BDC04600409C45008036444E
S1135940AC1C5A643BDFF73F006AD84000408F40EC
S113595080B582B000AF78600A4B1B781A000A4BFE
S113596092007968D150074B1B7801330A21180043
S113597003F006F90B00DAB2024B1A70C046BD46BA
S113598002B080BD5FFBFF1F24F9FF1F80B582B00A
S113599000AF00237B6000233B6009E00B4B3A68B7
S11359A09200D3587A68D3187B603B6801333B601C
S11359B03B68092BF2D97B680A21180003F0E3F84D
S11359C003001800BD4602B080BDC04624F9FF1F85
S11359D080B582B000AF094B1B68FA1D1100180096
S11359E003F080F8FB1D1A78054B1100180000F035
S11359F043FAC046BD4602B080BDC046D0F9FF1F81
S1135A004CF9FF1F80B586B000AF78603960184B41
S1135A107A681A60174B180002F03DFF3A680C21AF
S1135A207B181A607B1808221A717B1800225A719D
S1135A307B1800229A717B180022DA717B180022ED
S1135A401A727B1800225A727B1801229A727A18F1
S1135A507B681100180000F063FE074A7B681100A0
S1135A60180000F00FFFC046BD4606B080BDC0461A
S1135A70D0F9FF1F4CF9FF1FD159000080B582B047
S1135A8000AF0200FB1D1A70084B180002F037FF2C
S1135A9003001900FB1D1B789AB2002391425B415D
S1135AA0DBB21800BD4602B080BDC0464CF9FF1FF2
S1135AB080B500AF034B180002F012FFC046BD468C
S1135AC080BDC0464CF9FF1F80B584B000AF78603C
S1135AD00023FB600BE00B4B1868FB687A68D31853
S1135AE01B78190002F0E4FFFB680133FB60FB68DC
S1135AF07A68D3181B78002BEDD1C046C046BD464A
S1135B0004B080BDD0F9FF1F80B582B000AFFB1D8B
S1135B1000221A70184B180002F0CDFE03001A0080
S1135B20BB1D1A7015E0FB1D1A78144BD218124BCA
S1135B301100180000F0D0F9FB1D1A78FB1D01328A
S1135B401A700D4B180002F0B6FE03001A00BB1DBC
S1135B501A70BB1D1B78002B03D1FB1D1B787E2BF9
S1135B60E1D9FB1D1B78054A0021D154034B1800D1
S1135B70BD4602B080BDC0464CF9FF1FD4F9FF1FDB
S1135B8080B582B000AF786000F074FA074B18005B
S1135B9000F092FA7B68180000F0E8FA002000F0A8
S1135BA0BDFAC046BD4602B080BDC046CD5B000014
S1135BB080B582B000AF7860034B7A681A60C04643
S1135BC0BD4602B080BDC04654FAFF1F80B500AF89
S1135BD0074B01221A70074B1B68002B05D0054B9D
S1135BE01B689847024B00221A70C046BD4680BD10
S1135BF060FBFF1F54FAFF1F80B582B000AF7860CE
S1135C0039607B681B69012213400CD0124B1B685E
S1135C10002B08D0104B1B68104A3968890089583A
S1135C207A68100098477A6888235B00D358012269
S1135C3013400CD00A4B1B68002B08D0084B1B6880
S1135C40084A3968890089587A6810009847C0461C
S1135C50BD4602B080BDC04658FAFF1F5CFAFF1F64
S1135C6060FAFF1F64FAFF1F80B500AF034B0021E9
S1135C701800FFF7C1FFC046BD4680BD0060064066
S1135C8080B500AF044B1A68044B1B680448190024
S1135C909047C046BD4680BD74FAFF1F68FAFF1FD7
S1135CA000A0064080B500AF044B5A68044B5B6803
S1135CB0044819009047C046BD4680BD74FAFF1FD2
S1135CC068FAFF1F00B0064080B500AF044B9A6825
S1135CD0044B9B68044819009047C046BD4680BDEC
S1135CE074FAFF1F68FAFF1F00C0064080B582B037
S1135CF000AF0200FB1D1A70FB1D1B787F2B09D817
S1135D00FB1D1B781A001F231A40044B01219140EC
S1135D100A001A60C046BD4602B080BD00E100E042
S1135D2080B582B000AF02003960FB1D1A700A4BC7
S1135D303A681A60094BFA1D12781A703B2000F079
S1135D40F9F8074B1A6C064B03218A431A64C046C0
S1135D50BD4602B080BDC04680FAFF1F61FBFF1F35
S1135D6000B0034080B582B000AF78600F20FFF729
S1135D70BDFF134A134B1B789B009B581049114AD3
S1135D801278100040221A4383005A500C4A0D4BDB
S1135D901B789B009B581F2293431A000A4B1B68D5
S1135DA01F210B400648074909781A438B001A50F3
S1135DB0064B7A681A60C046BD4602B080BDC04634
S1135DC000B0034061FBFF1F80FAFF1F84FAFF1F2E
S1135DD080B582B000AF134A134B1B7812339B007B
S1135DE09B587B60114B1B68002B04D00F4B1B6826
S1135DF07A68100098470B4A0B4B1B789B009B5802
S1135E001F2293431A000A4B1B681F210B400548AD
S1135E10054909781A438B001A50C046BD4602B0A2
S1135E2080BDC04600B0034061FBFF1F84FAFF1F22
S1135E3080FAFF1F80B582B000AF78607B68802253
S1135E409B5A9BB201330B4A134004D5013B802279
S1135E5052421343013319007B6882229B5A9BB23E
S1135E60994201D1012300E000231800BD4602B08D
S1135E7080BDC0467F00008080B582B000AF7860EE
S1135E800A00FB1C1A707B681800FFF7D3FF031E7F
S1135E9001D000231AE07B6880229B5A9BB2190030
S1135EA07B68FA1C12785A547B6880229B5A9BB2F6
S1135EB00133084A134004D5013B80225242134364
S1135EC0013399B27B688022995201231800BD46A0
S1135ED002B080BD7F00008080B582B000AF7860E2
S1135EE039607B68180002F0E6FC031E01D0002331
S1135EF01AE07B6882229B5A9BB21A007B689A5CE8
S1135F003B681A707B6882229B5A9BB20133084A11
S1135F10134004D5013B802252421343013399B20A
S1135F207B688222995201231800BD4602B080BDCD
S1135F307F00008080B582B000AF0200FB1D1A70A4
S1135F40254AFB1D1B789B009A582349FB1D1B788F
S1135F50224802409B005A501F4AFB1D1B789B009D
S1135F609A581D49FB1D1B781D4802409B005A503E
S1135F70194AFB1D1B789B009A581748FB1D1B7878
S1135F80802189040A439B001A50164A81239B00EE
S1135F90D3581449144A1A4081239B00CA50114A09
S1135FA081239B00D3580F49802252001A43812336
S1135FB09B00CA50084AFB1D1B789B009A58064850
S1135FC0FB1D1B788021C9050A439B001A50C0465B
S1135FD0BD4602B080BDC04600500640FFFFFFBF73
S1135FE0FFFFFFF800400640FFF8FFFF80B500AF59
S1135FF0014B1800BD4680BD00127A0080B582B006
S113600000AF78607B68114A934201D1104B18E0CD
S11360107B68104A934201D10F4B12E07B680F4A10
S1136020934201D10E4B0CE07B680E4A934201D19E
S11360300D4B06E07B680D4A934201D10C4B00E006
S113604000231800BD4602B080BDC0460090044045
S113605000F00F4000A0044040F00F4000B00440A6
S113606080F00F4000C00440C0F00F4000D0044056
S113607000F10F4080B500AF3720FFF75BFF0D4BF9
S11360809A680C4B02210A439A600A4B9A68094B9E
S113609002218A439A60074B9A68064B01210A43FE
S11360A09A60044B1A69034B01218A431A61C04662
S11360B0BD4680BD0070034080B582B000AF7860FB
S11360C0094B1A69084B01210A431A61074B1A68E4
S11360D0064B8021C9030A431A60054B7A681A608B
S11360E0C046BD4602B080BD0070034000E100E040
S11360F088FAFF1F80B500AF064B0122DA60064B19
S11361001B68002B02D0044B1B689847C046BD4651
S113611080BDC0460070034088FAFF1F80B582B07E
S113612000AF0200FB1D1A700E4BFA1D12781A7094
S11361300D4B5A690C4B01210A435A610A4A094B17
S11361401B78D8B203001B01D31828331B680649F7
S113615001221A430301CB1828331A60C046BD46F6
S113616002B080BD62FBFF1F00700340B0B584B075
S113617000AFF8601E4A1F4B1B78D8B203001B0106
S1136180D31828331B681A490C2293431A000301BD
S1136190CB1828331A60FB681C0000231D00FFF78E
S11361A025FF03003B6000237B603A687B68200086
S11361B0290002F0A5FD02000B00100019000E4A90
S11361C0002302F019FD02000B000949094B1B785A
S11361D0DBB2180013005B019B1A9B009B181B0188
S11361E01A00831C1B015A50C046BD4604B0B0BD02
S11361F00070034062FBFF1F40420F0080B582B075
S113620000AF0200FB1D1A70FB1D1B787F2B09D801
S1136210FB1D1B781A001F231A40044B01219140D7
S11362200A001A60C046BD4602B080BD00E100E02D
S113623090B587B000AFF8607A600B203B180A1C59
S11362401A7017243B1901221A703B181A781F215F
S1136250002391425B41DBB25BB23A19127852B22D
S113626013405AB23B191A707B685A1E9341DBB231
S11362705BB23A19127852B213405AB23B191A70EF
S11362803B191B78012B57D13B181A78FB689200F5
S11362900021D1503B181A78FB689200D1587B68D2
S11362A01B781A02E023DB0013403A1812781943D2
S11362B0FB689200D1503B181A78FB689200D358BF
S11362C07A68527811003A1812781943FB689200E0
S11362D0D1507B689B78002B2ED03B181A78FB6832
S11362E09200D1587B689B781A04F0231B03134057
S11362F03A1812781943FB689200D150FB68124A8D
S1136300934203D0FB68114A934202D10720FFF75E
S113631075FFFB680E4A934207D0FB680D4A93420F
S113632003D0FB680C4A934202D11A20FFF766FFA0
S11363307B685A68094B1A601723FB181B781800EE
S1136340BD4607B090BDC0460090044000D0044054
S113635000A0044000B0044000C004408CFAFF1FB9
S113636090B585B000AF78607B68A0229B58BB6075
S11363700F23FB1800221A7024E00F217B181B78CE
S1136380BA68DA4013000122134015D0124B1B687F
S11363900C007A1811787A681000984721007B184D
S11363A01A787B689200D3587A18127880214904AD
S11363B019437B689200D1500F217B181A787B18FF
S11363C001321A700F23FB181B781F2BD5D9C04636
S11363D0C046BD4605B090BD8CFAFF1F80B582B0A3
S11363E000AF78600A00FB1C1A700B4AFB1C1B7878
S11363F09B009A588023DB05134008D07B68A022B9
S11364009B58002B03D07B681800FFF7A9FFC046F8
S1136410BD4602B080BDC0460050064080B500AF06
S11364200A4B1B68002B0ED0094B4A211800FFF7BA
S1136430D5FF084B4B211800FFF7D0FF064B4C212A
S11364401800FFF7CBFFC046BD4680BD8CFAFF1F86
S113645000A0044000B0044000C0044080B500AF78
S1136460084B1B68002B09D0074B49211800FFF784
S1136470B5FF064B4D211800FFF7B0FFC046BD46DF
S113648080BDC0468CFAFF1F0090044000D0044039
S113649080B582B000AF0200FB1D1A70FB1D1B7893
S11364A07F2B09D8FB1D1B781A001F231A40044BAD
S11364B0012191400A001A60C046BD4602B080BD69
S11364C000E100E080B582B000AF78600A00FB1CF8
S11364D01A70FB1C1B780A2B3DD04ADC092B27D0F1
S11364E047DC072B02D0082B0ED042E07B681B69E7
S11364F0224A1A407B681A617B689B6980221201D8
S11365001A437B689A6135E07B681B691B4A1A4011
S11365107B681A617B689B69194A1A407B689A6197
S11365207B689B69102293431A007B689A6121E07F
S11365307B681B69114A1A407B681A617B689B69F6
S11365400F4A1A407B689A617B689B6910221A4340
S11365507B689A610EE07B681B69802292051A436E
S11365607B681A617B689B69054A1A407B689A615B
S113657000E0C046C046BD4602B080BDFFFFFFDF5D
S1136580FFF7FFFFF0B589B000AFF860B9607A603B
S1136590786802F0AFFB041CB86802F0ABFB031C84
S11365A0191C201C01F0C4FF031CBB61B86802F075
S11365B0A1FB031C7B611F23FB1804221A704CE00F
S11365C01F26BB191B78180002F088FB031C191C3A
S11365D0B86901F0ADFF031C1C257C19181C02F0DE
S11365E039FB0300238029007B181B88002B2ED045
S11365F07B181A8880239B019A4228D27B181B8817
S1136600BA1912785343180002F068FB031CB969E5
S1136610181C02F005F8031C181C02F005F902000E
S11366200B001000190002F090FA04000D007869C4
S113663002F0FAF802000B002000290001F0DCFE51
S1136640031E04D01E23FB18BA1912781A701F21D6
S11366507B181A787B1801321A701F23FB181B78D9
S1136660202BADD91E22BB181B78032B03D8BB18D3
S11366701B78072B06D8FB681B69802292021A43F9
S1136680FB681A61FB681B690E4A1A401E23FB183B
S11366901B78013B1906F8235B050B401A43FB6882
S11366A01A61FB681B695B0B5A031C23FB181B88CC
S11366B0DB04DB0C1A43FB681A61C046BD4609B013
S11366C0F0BDC046FFFFFFE080B582B000AF786048
S11366D07B689B69802292031A437B689A617B687A
S11366E00C4A934203D10C20FFF7D2FE0EE07B68E4
S11366F0094A934203D10D20FFF7CAFE06E07B68E6
S1136700064A934202D10E20FFF7C2FEC046BD46A0
S113671002B080BD00A0064000B0064000C00640A4
S113672090B585B000AF7860396008243B19180033
S113673008231A00002102F0EEF93B1902221A7014
S11367407B68484A934212D16A20FFF7F3FB4B203F
S1136750FFF7F0FB3B1944481A000021FFF768FDDE
S11367603B1941481A000121FFF762FD2EE07B68C6
S11367703E4A934213D16B20FFF7DCFB4B20FFF71B
S1136780D9FB08243B193A481A000621FFF750FDAB
S11367903B1937481A000721FFF74AFD16E07B68CA
S11367A0344A934212D16C20FFF7C4FB4C20FFF70C
S11367B0C1FB08243B1930481A000621FFF738FDB5
S11367C03B192D481A000721FFF732FD7B689B68AF
S11367D002221A437B689A607B689B680222934377
S11367E01A007B689A607B689B69244A1A407B681C
S11367F09A613B681A797B6811001800FFF762FE02
S11368003B685A797B681100180002F018F97B681C
S11368101B691B4A1A403B685B7A590380239B011E
S11368200B401A437B681A613B681B681C00FFF726
S1136830DDFB02007B6821001800FFF7A3FE3B6824
S11368409B7A002B03D07B681800FFF73DFF7B6821
S11368509B69C02212031A437B689A61C046BD46F5
S113686005B090BD00A0064000A0044000B0064062
S113687000B0044000C0064000C00440FFFFF3FF26
S1136880FFDFFFFF80B582B000AF786039607B68BE
S11368900C4A934203D10C4B3A681A600EE07B68B1
S11368A00A4A934203D10A4B3A681A6006E07B68AD
S11368B0084A934202D1084B3A681A60C046BD4662
S11368C002B080BD00A0064090FAFF1F00B0064051
S11368D094FAFF1F00C0064098FAFF1F80B500AF6E
S11368E0044B1B68002B02D0024B1B689847C04620
S11368F0BD4680BD90FAFF1F80B500AF044B1B68F6
S1136900002B02D0024B1B689847C046BD4680BD91
S113691094FAFF1F80B500AF044B1B68002B02D014
S1136920024B1B689847C046BD4680BD98FAFF1FBE
S113693080B500AF104B1A6880239B01134003D02D
S11369400D4B0E4A5A6005E00B4B0D4A5A600A4B38
S11369500C4A5A60084B0C4A9A60074B1B68A022E9
S113696093431A00044B20210A431A6002F0C8F82A
S1136970C046BD4680BDC0460020054020C528D97C
S113698020C5000028D90000FFFF0000F7B500274C
S1136990324EC21C34689508B84214D02B000A3316
S11369A00093EB1C0193002C0FD10C3000F0F8FF86
S11369B0431C08D080239B05036045608460002F3E
S11369C04AD1306021E00020FEBD802123684905C2
S11369D08B423ED1A7686368002F0DD039688C467E
S11369E0802149058C4507D1796803338C4663447B
S11369F06360BB68A360EDE79D4208DC019999429E
S1136A0005DB80239B05236020000C30DCE7009924
S1136A108B4211D9802189052160032120008A43FA
S1136A2080210C305B1B82184905033B6560A26022
S1136A30116053609760C7E7002F0AD19B00C01A0A
S1136A4000F0AEFF0130BED080239B05236065605B
S1136A50DAE72700A468A6E7B860D6E7A4FAFF1F20
S1136A6010B5FFF793FF041E05D11722034902F066
S1136A709EF902F089F9200010BDC046FC8D00008B
S1136A8070B5184C18492200002001F061F88023E9
S1136A9080225B0000212000D20000F00BFF134C89
S1136AA0134D22002900012001F052F88023802296
S1136AB05B0000212000D20000F0FCFE0D4B1B689F
S1136AC0022B0DDD0C4C29002200022001F040F8BD
S1136AD080238022002120005B00D20000F0EAFE27
S1136AE070BDC046A8FAFF1F148E0000E4FAFF1F11
S1136AF0168E0000F88D000020FBFF1FF0B5C9B012
S1136B000A924F9A0700069200220B934E9B07921B
S1136B1018785A1C0C92002802D1079849B0F0BD8D
S1136B20252837D100260C9A11000D7801322B2D1F
S1136B3063D04BD8202D62D0232D62D02A2D49D189
S1136B40069B01CB0890002803DA404208900120FC
S1136B504640023115780C910693089B089ADB4352
S1136B60DB171A40002313920D932E2D5CD10C9B3E
S1136B701D782A2D4AD00A2001332A00303AD1B296
S1136B800C9309294BD80D9C1D78444312190D927E
S1136B900133F2E7079B0B9ADB179A4208DC03D117
S1136BA00A9B079A934203D8079B013307935DE03E
S1136BB0BB68013BBB60002B04DB3B685A1C3A609A
S1136BC01870F1E7390000F02DFFEDE72D2D11D0FD
S1136BD0302D18D000230A2008932B00303BD9B263
S1136BE00C920929B9D80899157841435B18089380
S1136BF00132F2E701231E4396E70223FBE7042355
S1136C00F9E70823F7E780239B00F4E7069B04CB0E
S1136C100D920C9A06931300557802330C930D9B36
S1136C20002B25DB10231E436C2D09D10C9B1D78F2
S1136C306C2D20D15D7860231E430C9B02330C9392
S1136C40712D4DD01DDC682D51D06A2D00D1B2E0DC
S1136C504C2D45D0572D1CDC412D00D1A6E300DD81
S1136C60AEE0002D56D10C9B013B0C930C9B4FE7DF
S1136C7000230D93D8E70C9B01330C9320231E4370
S1136C80DEE7742D00D198E07A2D00D195E0782DBF
S1136C9040DC2800583820283CD802F06DF8DB018D
S1136CA03B003B003B003B003B003B003B003B0008
S1136CB087033B00AE004D039600960096003B0010
S1136CC04D033B003B003B003B00F800EF02450254
S1136CD03B003B0019013B001A033B003B000B0245
S1136CE00C9B1D7860231E430C9B013309E00C9B15
S1136CF01D78682D07D180235B001E430C9B5D78B3
S1136D0002330C9304E00C9B01330C9380231E4349
S1136D10782D9FDD139B3200013B0D9301231A4014
S1136D2012921E421DD12024B60500D51034079BB3
S1136D301C93DB171D930D9B013B62D5139B002B0A
S1136D4000DC0123079A013BD3180793139B08998E
S1136D509A1E0023994202DD139901335B1A9B1892
S1136D600D93079B0B9A5E1CDB179A4204DC0CD133
S1136D700A9B079A934208D9BB68013BBB60002B6E
S1136D8060DB3B685A1C3A601D70129B0796002B0F
S1136D9000D16BE701240025F3171F930D9B1E966A
S1136DA00793079B013B52D50D9B0D9ADB43DB17E1
S1136DB013409B19FAE640231E430C9B1D7894E76D
S1136DC002232A009A43452AA4D18023DB003343BB
S1136DD0F60601D406220D920721069A1E000732F8
S1136DE08A4303CA002306920022049205930023D7
S1136DF03E903F911A0012939FE1069B20CB06938D
S1136E0088E70D931D9A0B9B934204DC0CD10A9BDB
S1136E101C9A934208D9BB68013BBB60002B0CDB76
S1136E203B685A1C3A601C7001201C9A1D9B00216F
S1136E3012184B411C921D937DE73900200000F08D
S1136E40F1FDF1E73900280000F0ECFD9DE7079320
S1136E501F9A0B9B934204DC0DD10A9B1E9A93420A
S1136E6009D9BB68013BBB60002B0BDB3B685A1C98
S1136E703A6020221A701E9A1F9B12196B411E92AF
S1136E801F938EE73900202000F0CCFDF3E7069B2A
S1136E901A1D730607D5069B07991B681960C91745
S1136EA059600692E2E6B30604D5069B07991B686F
S1136EB01960F6E7F30504D5069B07991B6819705A
S1136EC0EFE7069B07991B683606F1D51980E8E7BA
S1136ED0069B04CB12923493002A01D18B4B12935C
S1136EE0129800F02FFD0690F30603D50D9A9042F8
S1136EF000DD0692139B069A9B1A08933200012325
S1136F001A4013921E421AD12024B60500D510341B
S1136F1001250026079B2493DB172593089B0D93DB
S1136F200D9B013B36D5089B089ADB43DB171340C6
S1136F30079AD2180792089A013AD31A089300269E
S1136F4001240025079B2293DB172393069B9E4273
S1136F503FDBDB43069ADB171340079AD3180793EA
S1136F60349B0693139B002B00D17FE6012400255C
S1136F70079B089E2093DB172193013E4BD5089B6A
S1136F80089ADB43DB171340079AD3180793349B03
S1136F9006936BE60D93259A0B9B934204DC0CD16C
S1136FA00A9B249A934208D9BB68013BBB60002B1F
S1136FB00ADB3B685A1C3A601C70249A259B5219C0
S1136FC0734124922593ABE73900200000F02AFD99
S1136FD0F3E70B9B239A934204DC0ED10A9B229A7B
S1136FE093420AD9BB68013BBB60002B0DDB3B68B5
S1136FF05A1C3A60129A925D1A70229A239B1219B3
S11370006B41013622922393A0E7129B3900985DCD
S113701000F008FDF1E70B9B219A934204DC0DD1AB
S11370200A9B209A934209D9BB68013BBB60002BA1
S11370300BDB3B685A1C3A6020221A70209A219B71
S113704012196B412092219397E73900202000F018
S1137050E9FCF3E7402332001A401E421DD0072208
S1137060069B0733934319000CC9049205930691B8
S1137070802332001A401E4215D06B461B8A0493AB
S113708000230593224A330700D5224A224B129348
S1137090F10652D521490E404FE0069B059202CBE2
S11370A004910693E4E7F305ECD56B461B7C05924B
S11370B00493E7E7402332001A401E4218D0072207
S11370C0069B0733934319000CC904920593069158
S11370D0802332001A401E4210D06B461B8A049350
S11370E0002305930A4A330700D50D4A0D4BCEE71A
S11370F0069B059202CB04910693E9E7F305F1D5CB
S11371006B461B7C05920493ECE7C046188E000086
S1137110138E00001F8E00002D8E0000FFFDFFFF68
S1137120228E00003E8E0000069B04CB04920022B7
S11371300693A84B0592A84A1293079B3B92389357
S1137140DB1701220A980B993993389B399CC01A92
S1137150A1415242089009913C923D92552000224F
S11371600D9B40A93A9350540132202AFBD182222C
S1137170D200164201D101223A926E2D00DD1DE1AA
S1137180472D00DDB5E12A005123413AD3400122C5
S113719019001140134200D0EDE10D91802332001B
S11371A0DB001A4034921E4200D1F6E100233A93E8
S11371B03C9B002B01DD013B3A933D9B3A9A002B0B
S11371C002DD013B9B183A930D9B3A9C3B981C199A
S11371D000F0B8FB139B1C1B231A129301233340AA
S11371E035937E4B1E4200D104E200230124002586
S11371F01493DB1715933B9B5A1C3B921B781393F8
S1137200002B00D0F9E1359B149C002B13D12025D1
S1137210B60500D51035E317129E16941793013E58
S113722000D409E2129B129ADB43DB171340013AA4
S1137230E418D31A1293349B002B00D07EE2E31798
S113724010940025012411933A9B013B3A93002B9F
S113725000DB92E201240025109B13931893DB17A3
S113726019930D9B5E1E002B00DDA5E20D9B0D9A6C
S1137270DB43DB171340139A9C1863E2402332006C
S11372801A401E4218D00722069B07339343190065
S11372900CC9049205930691802332001A401E42C1
S11372A010D06B461B8A0493002305934C4A330782
S11372B000D54C4A0023EAE6069B059202CB0491D2
S11372C00693E9E7F305F1D56B461B7C059204931D
S11372D0ECE7402332001A401E4220D00722069BCE
S11372E00733934319000CC9049205930691802334
S11372F032001A401E4218D06B461B8A04930023A6
S113730005931021330036480B40020012930E42BD
S113731000D112E7344B1E40002312930DE7069B65
S1137320059202CB04910693E1E7F305E9D56B4698
S11373301B7C05920493E4E773061CD50722069B85
S11373400733934319000CC90E920F930691330629
S113735018D56B4638229B5E0E93DB170F930F9B59
S1137360002B17DA0E980F99002342428B410492A6
S113737005931E4A9EE7069B04CB0E92D2170F92EA
S11373800693E4E7F305EAD56B4638229B181B788D
S11373905BB2E1E70E9A0F9B04920593144AB3077C
S11373A088D40F4A730785D5124A83E710231E42F7
S11373B000D00AE51E43033B0D9306E528006F3811
S11373C0092800D9E7E001F0C7FCD28BE6E6E6E63F
S11373D017E6E68B3E8E0000228E000001020000BC
S11373E0138E0000258E0000FFFDFFFF278E000096
S11373F0298E00002B8E000000230D93049B059A18
S1137400134300D1CAE6049C059D059B049ADB073F
S113741052081A43059B2E925B082F93049A059BEE
S113742092089B071A43059B30929B08319330982E
S113743031992E9A2F9B12184B41190710090843B2
S11374401909289029912898299912184B4119064D
S1137450100A0843190A2A902B912A982B9912187A
S11374604B411904100C0843190C2C902D912C98A5
S11374702D9912184B41002136933791369837993C
S113748012184B415907DB082793D0080023062222
S113749008432690A4185D41269827990A220023C0
S11374A001F02EFC241A8D412B0722091A432B09C3
S11374B0329233930A22269B279C32983399C01820
S11374C0614128254243049B0D9C30339B1A36AA04
S11374D05219135523000133049005910D938DE740
S11374E000220F2040A9049C059B1C4319D10D9236
S11374F054E62800583811284DD801F035FCF1FF26
S11375004C004C004C004C004C004C004C004C0017
S11375103C004C004C007DFF3C003C003C004C0017
S11375207DFF049C129B04401C5D059B54541B0767
S11375309C46049B01321D09059B1C0963462B4391
S113754004930594CFE70498084030309854059884
S1137550013345070498C40805982543C0080495D9
S113756005900498059C2043EDD10D9316E6002365
S1137570072140AAF5E73DAB03933CAB02933AAB3A
S113758001933BAB009328003300509C40AA3EA9D2
S1137590A0470D9002E60023E7E73A9B0D9A9B1A59
S11375A000D410E6349B0EE6099BAB4203DC0CD1FD
S11375B0089BA34209D9BB68013BBB60002B14DBC9
S11375C03B685A1C3A6020221A7001220023A41836
S11375D05D41129B5A1E131BE6D5129B1299DB4385
S11375E0DB170B40D21A129200E63900202000F07B
S11375F019FAEAE700240025EBE7099B159A934260
S113760004DC0DD1089B149A934209D9BB68013B51
S1137610BB60002B0BDB3B685A1C3A60139A1A7050
S1137620149A159B12196B4114921593E3E53900D2
S1137630139800F0F7F9F3E7099B179A934204DCD7
S11376400CD1089B169A934208D9BB68013BBB60D6
S1137650002B0CDB3B685A1C3A601D700120169A03
S1137660179B002112184B4116921793D7E5390046
S1137670280000F0D7F9F1E7139A40ABD05CE31788
S11376803C281ED03E2845D125001E003D9B013BD1
S11376903D93002B1CDB099BB34203DC0CD1089BFC
S11376A0AB4209D9BB68013BBB60002B2DDB3B68B7
S11376B05A1C3A6030221A7001230024ED186641E6
S11376C0E4E725001E003C9B013B3C93002B01DAC0
S11376D02C0030E0099BB34203DC0CD1089BAB4285
S11376E009D9BB68013BBB60002B09DB3B685A1C12
S11376F03A6030221A7001230024ED186641E2E753
S11377003900302000F08EF9F5E73900302000F020
S113771089F9D1E7099A934203DB0BD1089BA34271
S113772008D9BB68013BBB60002B22DB3B685A1CB9
S11377303A6018700134139B013313930D9B139A11
S1137740934299DC359B002B0FD001250026E317CB
S11377501B93129B1A940D930D9B013B4CD5129BCA
S1137760129ADB43DB171340E418079B1B19FFF73E
S11377701DFA390000F056F9DCE7099B119A93428F
S113778004DC0DD1089B109A934209D9BB68013BD4
S1137790BB60002B0BDB3B685A1C3A6030221A702A
S11377A0109A119B12196B41109211934CE53900F8
S11377B0302000F037F9F3E7099B199A934204DC6F
S11377C00ED1089B189A93420AD9BB6840AA013B80
S11377D0B05CBB60002B0BDB3B685A1C3A60187032
S11377E0189A199B12196B4118921993330039E5B1
S11377F0390000F017F9F3E70D931B9A099B9342A4
S113780004DC0DD1089B1A9A934209D9BB68013B49
S1137810BB60002B0BDB3B685A1C3A6020221A70B9
S11378201A9A1B9B521973411A921B9394E73900BD
S1137830202000F0F7F8F3E70CB430B505000C0095
S113784097B0002803D100292CD1013405AD1BAB1E
S11378503C22002107A8069301F05DF90A2307954D
S113786000250A93114B621E0993114B07A802933A
S1137870069B01931A9B00932B00FFF73FF9099B8A
S11378800400013B0993AB4207DB079B1D702000FA
S113789017B030BC08BC02B01847280007A900F094
S11378A0C1F8F4E701246442F1E7C046FFFFFF7F1B
S11378B06B8B0000F0B5C56804000120AE070CD046
S11378C080208000824213D08020C000824205D0F4
S11378D08020400082420BD0FF38F0BD21000123FC
S11378E024311543002021612160E361E560F4E760
S11378F0024F5E1E0120BE42F3D9EEE7FEFFFF00F9
S113790002000A43030010B5920709D10B4C1A6810
S11379100868904204D10A4A82188243224206D05F
S11379200022985C8C5CA04204D0001B10BD043380
S11379300431ECE701320028F3D1F7E7808080803E
S1137940FFFEFEFE0300032110B51A000B4219D1FD
S1137950114C1368114959189943214219D0DCB2CA
S1137960511C002C0BD0FF242402911C234206D06E
S1137970FF2109040B40591E8B41D318D91C013037
S1137980081A05E001335C1E2478002CDDD1101A9E
S113799010BD0432DDE7C04680808080FFFEFEFE1D
S11379A070B50D4D04002B68002B01D10B4B2B60DF
S11379B003232E6803349C433419200000F04EFA4C
S11379C0002802D12C60300070BD0C220126044B2B
S11379D076421A60F7E7C046A0FAFF1F64FBFF1F58
S11379E09CFAFF1F2022C36810B59343C3608269C9
S11379F0836A04009A420CD000F0E4F8E268074B72
S1137A001A4010231343E360A36AA3612369E3626A
S1137A102360E368024A1340E36010BDEFCFFFFF29
S1137A20BFBFFFFFF8B5474ACB6805001A400C00FA
S1137A30CA609B0602D50800FFF7D4FFA268E66877
S1137A40531C0FDAB3050DD402235B429B1AA360C7
S1137A5090235B023343E36023685A1C22601D7049
S1137A60E8B20AE0384A3240022A07D00023A36071
S1137A7080333343E36001204042F8BD8021334B1F
S1137A80090233408B420AD10021200000F04AF958
S1137A90E3689B0602D52000FFF7A4FFE668902365
S1137AA0F0225B0233431201E360164210D18027B7
S1137AB060697F0001F06FF93800FEF7D1FF94236D
S1137AC0E2685B0233431A4320612060E761E260AD
S1137AD090210901226826690B4216D0E36A9A4272
S1137AE000D91300991BB34208D1731CE3622360CD
S1137AF0E3695A1EA26023633570B1E722003000A7
S1137B0000F08EF80028F0D0B5E7511CE8B22160EF
S1137B101070E26A21688A4200D91100E269891B67
S1137B2022635B0503D40A2801D08A4298DC00232F
S1137B3022003000E6622660A36000F071F800289D
S1137B4099D18DE7FFFFF7FF8A10000010A0000015
S1137B50F7B50D0001901000140000F095F82B7893
S1137B60722B1CD0772B1DD0612B26D1144A593B84
S1137B700220691C032784460426012508782B2843
S1137B8013D0622816D0E260019A62611B0704D503
S1137B9002220021200000F0C5F82000FEBD0023D1
S1137BA00122E5E704230222E2E760463A43034365
S1137BB00131E3E732432B43FAE70024EDE7C04603
S1137BC00280000070B50400134AE36805691A4096
S1137BD00168C06AE26082221A40022A02D00120AF
S1137BE0404270BDDB030CD5814200D201008D42BE
S1137BF009D10023094AA360E368E56213402560C4
S1137C00E3600020EDE722002800491B00F008F89B
S1137C100028EED0E3E7C046FFFFF7FFFFFFFEFFBB
S1137C20F7B5D5680F00140056690190EB0205D52D
S1137C30102330001D4301F0ABF8A061104B1D422E
S1137C400FD03000A16901F0ACF8002806DA8023D7
S1137C500120E26840421343E3600FE0094B1D40FA
S1137C60E5603A003000019901F0A1F84300A269EF
S1137C705B08FB1AD318A3610028E8D1FEBDC046F7
S1137C8010000200EFFFFDFFF0B5C568040047696E
S1137C90066989B0AB0720D02B0716D400F022F870
S1137CA0380001F072F82B0502D5300000F037FFE0
S1137CB00B4BAD0DAD059D4207D120226846216ACC
S1137CC001F072F8684600F052FF3C2200212000C7
S1137CD000F021FF002009B0F0BD01204042FAE786
S1137CE0000080ADF8B5002812D000F0C3F80500FC
S1137CF02800F8BD38006043084BC01800F0BAF8FB
S1137D00002801D001256D420134A642F2DCEFE7E0
S1137D10034B040005003C271E68F6E7A8FAFF1F82
S1137D20F88D0000F7B54369C6680193364B04002B
S1137D300D0000921E420BD0019801F02CF8071E92
S1137D4006D1009B012B06D0022B2DD0002B06D090
S1137D5002273800FEBD200000F05AF82D18002D2F
S1137D60F6DBB30404D52368E26A9A4200D2E362E4
S1137D70A369AB420EDCE16A22688A4200D20A009F
S1137D802169D0180091401AA84203DB206B19180E
S1137D90A94228DC20231E430023A562A36063605C
S1137DA01A4B1E40E660D4E7019800F0F1FFE26848
S1137DB0002804DA802313430127E360C9E7E16A5A
S1137DC02368994200D90B00A1695B1821695B1AE9
S1137DD0920603D5A26A934200DA1300834200DAC2
S1137DE00300ED18BBE7EB1AB50701D5181AA0601C
S1137DF0F00703D50099521A9A1A6260009AD118B2
S1137E00202321609E43CBE703001000BFCFF7FF80
S1137E10C16802008B0705D1212201200E4B40428C
S1137E201A60704720230B4009030AD5002B02D0A7
S1137E30806A0138F5E793690068C0181369C01AAD
S1137E40F7E7002B01D0806AEBE7036881690069DA
S1137E505B18181AE5E7C0469CFAFF1F03000448A4
S1137E60002803D000228342524110007047C046CC
S1137E7064FDFF1FC36870B503221E000400164092
S1137E80134211D09B0611D5856AFFF7ABFDE36859
S1137E90094A20001340E360FFF794FE0022060025
S1137EA029002000FFF73EFF300070BD836905689C
S1137EB0ED180369ED1AEAE7FFCFFFFFF0B587B0CD
S1137EC00292039300900191019B039A5F00534037
S1137ED07F0D059318D1019B5E00039B5D004D4B04
S1137EE09C469D421ED8019F039B4B4C1F43274237
S1137EF018D02000059BDF0F019BFF0718401C4290
S1137F0000D072E0390067E0444DAF4205D0039BD6
S1137F105C00640D01D0AC4206D1019B3D4C5E0077
S1137F20A642DAD9002072E0019B3F1BD902009BD4
S1137F30029A5C0D80231B069C46009B2143DC02B5
S1137F4063460B43510D62461D00039BDB020B434A
S1137F501343029AD202AB4202D81BD1A24219D9CE
S1137F602F4950087F18D9070843352259080023A0
S1137F705B00A94206D801D1A04203D80126241AE5
S1137F808D41334324196D41561E212A0CD13200F0
S1137F900493EDE7E9078C466646600869080643E2
S1137FA00D0034001F49DCE7321EE1D1A94208D894
S1137FB001D1A04205D801335A425A4104998A1882
S1137FC00492059A1849D20FD2078F4206D8180096
S1137FD03F05BF18049AB91807B0F0BD002F01DBA4
S1137FE00D4B1A4300201100F6E72200039B0020EA
S1137FF01A401C4203D13C4321001000ECE76545C4
S113800002D03C432100E7E73900AE42E4D10749FE
S1138010E2E7C0460000E0FF0000F07FFF07000039
S1138020FD030000FE030000FD0700000000F87FD0
S1138030F7B51E0014004E401D000F000200B446A8
S11380400194002E07DA8026360622009B1900F0E0
S1138050D1F803B0F0BD8B4204D8019E86420AD306
S11380608B4208D180230F0011001B066344019A40
S11380705F4001916B405B485B4E390D1D0D4C1BFD
S11380800840B04204D13B0300D1A5E00020A7E0A2
S1138090844204D1002C33D039001000D9E7802663
S11380A038031B037603000B1B0B304333431F2C95
S11380B050D81E00E640801B019E2035E6406C1A15
S11380C0A3403343D51AAA429241019B5242A34092
S11380D0801A002B05D0013D6A1C544262415B4268
S11380E0801AC0225203104253D14000EA0F0243C7
S11380F010006D00DB0F2B4318430239002807D111
S113810000200021A5E7180E120202431B020839C1
S1138110500BF8D0500C04D1180F120102431B016C
S11381200439D00C04D1980F920002439B00023909
S1138130100D04D1D80F520002435B000139C80A64
S1138140FF0FB84203D10C051800A11881E70020E5
S1138150F9077EE71500352C1BD81F00203CE740AB
S1138160D51BAA4292415242801A2022121B9340EC
S1138170019AE2401343019A160608D0FF221343E2
S1138180013D6A1C544262415B42801A01E0002BAB
S1138190F6D1C20209D401394C050ED0EA0F4000D1
S11381A010436D00DA0F15435B00104A0C050240C2
S11381B0002B06DB280011194BE70B0520001900E2
S11381C047E70135694269415218802109068B420B
S11381D0F0D101239D43EDE70020002C00D05BE7A4
S11381E0034936E7FFF7FFFFFF070000FFFFEFFF3C
S11381F00000F87FF0B50D0085B01F0016000400E4
S1138200019028000B003A00310002970396784051
S113821009D5802000063B18320020002900FFF712
S113822007FF05B0F0BDAF4204D8039A019901924B
S11382302A00029B3B4C3C48160D1F0DF51B344095
S1138240844204D1130306D000203849E9E7A5424B
S113825004D1002D61D008001100E2E7802014034E
S11382601B034003240B1B0B044303431F2D28D87B
S11382701800E840203784460198BF1BE840BB4003
S11382800343C91899429B4164445B42E418019B2F
S1138290BB40A0022FD54D1C694269416418002BD4
S11382A001D102339D43120D63081205D218204BED
S11382B0510099421BD86D08E4072C43110020009B
S11382C0AFE7352DE5D81F00203DEF40C919B9426D
S11382D0BF417F42E419202701987F1BE840BB403F
S11382E0034301980006D4D0FF200343D1E70136AD
S11382F00020310595E7013E002B09DA01314A429D
S11383004A41A41880221206934201D101239943C1
S1138310360533190800190083E7D20F2800D10766
S11383207FE7C046FFF7FFFFFF0700000000F87F6C
S1138330FFFFDFFF73B5FE2600900191019B1349F7
S11383405C00DA0F63085D18D2073605B54212D215
S11383500099CC00C82109065B18D900009BE00FE6
S11383605B0F0B43C01880231B069C4201D10123E1
S11383709843104376BD101C002DFBDB044B9C423C
S113838002D8FF20C005F4E70248F3E70000F0C775
S11383900000E0FF0000C07FF7B50F0019000600E1
S11383A01448394384460DD400205900614508D847
S11383B001309F4205D300209F4202D19642804162
S11383C04042FEBD7900002001916145F9D8590071
S11383D06145F6D80198314311430143081EF0D09A
S11383E001209F42EDD800209F42EAD1B24292413F
S11383F05042E6E70000E0FFF0B585B0009001913F
S11384001D000199009B14009C460B00144E03941C
S11384102B430ED400206B00B34208D80130A9428C
S113842005D30020A94202D162469442404105B0DE
S1138430F0BD019B00205F00B742F8D86B00B34247
S1138440F5D80130A942F2D802D1039A9445EED26C
S1138450009A134323433B4358425841E7E7C0463D
S11384600000E0FF031CC00D70B5FF2204001D00D6
S113847014404D4010420DD0944206D0CE0D300031
S11384801040164201D090420CD1FF22580012062F
S1138490904238D2FF204A000006824235D2E80FCB
S11384A0C0071DE0802224181802002312060902C6
S11384B010430A43190000F023FC06000B1E10DAD7
S11384C07F3CE80F190AC0070143E20552188021D6
S11384D01B0609068B4207D0FD2C05D8DB0F981824
S11384E070BD803C4B00ECE7531C002E01D10122EF
S11384F09343FD2C01D8181CF2E7002CF0DBFF237A
S1138500DB051843ECE790420ED1FF204A00000639
S1138510824209D8FF20C005184205D0084203D082
S1138520ED0FED072843DBE70048D9E70000C07FE3
S1138530021CF0B5D50D081C2C00FF2113000C40C3
S113854043400D4212D15400FF2541002D06A9429B
S11385501AD8FF261043F605304215D0D80FC007AD
S113856016424CD0A94256D0304348E0FF2C06D0E6
S1138570C60D35000D400E4201D0FF2D06D1FF215E
S1138580540009068C42DFD9244838E080211202C5
S11385900002C905520840080A4301430139641B1B
S11385A08A422DDA7D34D80F80233F261A25C00154
S11385B01B045200571A00D43A005200571A00D430
S11385C03A005200571A00D43A005200571A00D405
S11385D03A005200571A00D43A005200571A00D4F5
S11385E03A0097063843E841B2431842E1D05200BA
S11385F08A4200DB0130FD2C05D8E4052018F0BDCB
S113860052107E34CFE7C00FC007002CF7DBFF23E6
S1138610DB051843F3E78C42B6D0F0E70000C07FD7
S11386200A00F8B5424003000E00002A05DA802350
S11386301B06C91800F086F8F8BD814205D98023CD
S11386401B06D618030073404E40DA0DF40DD0B269
S1138650171BFF2803D15A026AD03848ECE7874237
S113866003D10028E8D01800E6E7802518022D067B
S11386703602284335432900F940401A11D5304BBE
S1138680C018010AD3055B18000601D0181CD3E7F3
S11386902034A41AA540581E002DCDD101229343A5
S11386A0E1E74100460017D5FE2680310812D305C4
S11386B01B181640090601D0002EE7D12034A41A55
S11386C0A540581E002D02D1012293431800002E0C
S11386D0B2D1C00FC007AFE700292CD08025D40544
S11386E06D04A9421BD3090A80204003814201D2B0
S11386F00901043A8020C003814201D28900023A70
S113870080200004814201D24900013A023AD20594
S113871054405018002C00DB8EE7D80FDAE7802590
S11387206D02A94201D3083ADEE74102103ADBE7C1
S1138730002FABD191E700207EE7C0460000C07F48
S113874080000080F8B5040002000B004C4005D501
S113875080231B06C918FFF763FFF8BD814201D8C7
S113876003000A00DD0DFF272800D10D6E1A3840E2
S1138770B84203D15A0205D01C48EEE7864203D121
S1138780002E30D0181CE8E78024120224061B02B5
S1138790234314432200F2409E18B2420DD8144BD6
S11387A0E805F218130AC0181206D6D12031491B65
S11387B08C40D2D101329043CFE70136681CFF369A
S11387C0C305720AD2183840F60503D0FF2801D039
S11387D0101CC2E72031491B8C4001D101218A437E
S11387E0FF28CFD0F4E7DB0FDB07CBE70000C07F27
S11387F0800000800102C20D031C80200006084393
S11388009E21891AC8409D2A03D9D2B29D2A01D833
S113881040427047FF2A01D15A02FAD1014ADB0FC4
S11388209818F6E7FFFFFF7F30B5C110FF240D0055
S11388302405254021420AD0E023DB0542070B43EF
S1138840A54209D0C82410002406191930BDC90F47
S1138850CB0700201900F9E719030A43F9D0014BAB
S1138860F7E7C0460000F87F80B500AFFCF724FFAF
S1138870C046BD4680BD80B582B000AFFDF786F826
S113888003007B607B681800FDF71CF8031C181CB0
S1138890BD4602B080BD80B582B000AF78607B6811
S11388A08022002199527B68822200219952C0467D
S11388B0BD4602B080BD80B582B000AF78607B68F1
S11388C080229B5A9AB27B6882215B5A9BB29A425D
S11388D001D1012300E000231800BD4602B080BD91
S11388E080B582B000AF78607B6882229B5A99B2CF
S11388F07B6880229952C046BD4602B080BD80B5D7
S113890082B000AF78607B6880229B5A9AB27B6801
S113891082215B5A9BB29A420AD37B6880229B5A7B
S11389209AB27B6882215B5A9BB2D31A9BB20BE04A
S11389307B6880229B5A9AB27B6882215B5A9BB2E5
S1138940D31A9BB280339BB21800BD4602B080BDDF
S113895090B587B000AFF8607A600B23FB180A1C4F
S11389601A707B68002B01D100233BE0FB681800E0
S1138970FDF744FB03007B617B69002B2FD07B68F0
S11389801A680B243B191978FB681800FDF750FC92
S11389900300012B25D17B681B79002B0BD17B694C
S11389A05B693A191278012191400A00D2431A40B6
S11389B07B695A6115E07B685A790B243B19197855
S11389C07B69180000F012F87B695A693B191B781F
S11389D0012199400B001A437B695A6101E000238D
S11389E000E001231800BD4607B090BD80B582B0F9
S11389F000AF786008001100FB1C021C1A70BB1C3D
S1138A000A1C1A70BB1C1B78002B0AD17B689B685C
S1138A10FA1C1278012191400A001A437B689A607B
S1138A2009E07B685B68FA1C1278012191400A0016
S1138A301A437B685A60C046BD4602B080BD80B50B
S1138A4082B000AF78600A00FB1C1A70FB1C1B7814
S1138A50022B1BD027DC002B02D0012B08D022E0F4
S1138A607B689B69022293431A007B689A611BE02E
S1138A707B689B6902221A437B689A617B689B69C5
S1138A80012293431A007B689A610DE07B689B691D
S1138A9002221A437B689A617B689B6901221A430C
S1138AA07B689A6100E0C046C046BD4602B080BD06
S1138AB080B582B000AF78600A00FB1C1A707B6836
S1138AC0DA69FB1C1B781A437B68DA61C0467B6851
S1138AD05A698023DB031340F9D0C046C046BD4623
S1138AE002B080BD80B582B000AF786039607B6829
S1138AF0DB69DAB23B681A70C046BD4602B080BD7D
S1138B0080B500AFC046BD4680BD10B5FDF7B8FFC7
S1138B10FCF73EFE10BD10B500F009F910BD10B50C
S1138B20002811D080210C38490501608268002A90
S1138B300AD013688B4207D14368546803331B1966
S1138B40436093688360F1E710BD70B50022002391
S1138B5004000D00FFF720FC002803D08021090643
S1138B606B181D002900200070BD0020704710B54F
S1138B700400FEF7E7FE0100200000F00FF910BD2D
S1138B8003000B4321D4002931D00122D207030969
S1138B9001E0090112099942FBD9430801E04900A7
S1138BA052089942FBD900E04908401A07D35241C0
S1138BB0FAD301461046704749084018F7D2921874
S1138BC0FAD34018014610467047CB0F00D04942F3
S1138BD0021000D54042534008B5FFF7D4FF0CBC47
S1138BE0521000D34042002A00D549421847F446A7
S1138BF0002000F02EF86047F0B517001F4323D083
S1138C0001264408CF073C434D08A71A2F469F412D
S1138C1003D392185B410136F7E70024002505E0F1
S1138C205208DF073A435B0824196D41871A0F463F
S1138C309F4102D3801A99410134013EF0D102468A
S1138C400B4620462946F0BD0020002100F001F823
S1138C50F0BD70479E22C10D031C521A05D40302B5
S1138C60802000061843D0407047FE2903D94202F1
S1138C7000208242F8D1D80F0138F5E700282BD024
S1138C80030C15D10004030E16D10002030F17D1F3
S1138C900001830F18D18000002819DB40008030C8
S1138CA002125218000601D101239A43101C704786
S1138CB080231B05C918E6E78023DB04C918E5E710
S1138CC080239B04C918E4E780235B04C918E3E705
S1138CD080231B04C918E2E70020E8E7C30F10B59E
S1138CE0D907002B00D040428023DB05C918FFF7C9
S1138CF0C5FF10BD802110B5C905FFF7BFFF10BD2A
S1138D0010B543435143C918040C130C5C430919AF
S1138D1092B2040C544380B2434350432204240CC3
S1138D20801861411A041B0C8018594110BD8446F7
S1138D30043A09D3830707D109060B0A19430B0C1C
S1138D401943043A02C0FCD2043203D0017001304A
S1138D50013AFBD1604670478C4671460139095C83
S1138D6049008E44614670478C46411E7144095E39
S1138D7049008E44614670478C46411E7144095A2D
S1138D8049008E4461467047FEE701204042704727
S1138D900120404270470120404270470120404278
S1138DA07047012040427047012040427047100044
S1138DB07047FFFF01030A001554000025642C25A9
S1138DC0640A00004B453136205374617274696E35
S1138DD067202E2E2E0000006666666600000000E6
S1138DE05265736574204368697020210000000097
S1138DF04552524F520A00FF030000002A2A2A203B
S1138E005F437379735F616C6C6F63206661696C37
S1138E1065640A0072007700286E756C6C29003056
S1138E20580030780030002D002B00200030313203
S1138E3033343536373839414243444546003031BE
S1138E40323334353637383961626364656600FF1E
S10B8E50006CDC0201FFFFFFCE
S90350D5D7
